S00C00004750494F2E73726563E9
S21440000098300020610440005D0440005D044000DC
S2144000105D0440005D0440005D04400000000000B8
S2144000200000000000000000000000005D044000EA
S2144000305D044000000000005D0440005D04400098
S2144000405D0440005D0440005D0440005D044000E7
S2144000505D0440005D0440005D0440005D044000D7
S2144000605D0440005D044000000000009502400032
S214400070AD024000C50240005D0440005D04400003
S21440008000000000000000005D0440005D044000E9
S2144000905D0440005D0440005D0440005D04400097
S2144000A05D0440005D0440005D0440005D04400087
S2144000B05D0440005D0440005D0440005D04400077
S2144000C05D0440005D0440005D04400040F6C4000E
S2144000D0064BC0F240001B1A062B00D8704740F271
S2144000E00003C0F20003002BF8D01847C7084000B2
S2144000F040F6C40340F6C400C0F24003C0F24000DD
S2144001001B1A9B1003EBD373591000D1704740F273
S2144001100002C0F20002002AF8D0104710B540F2A4
S2144001200404C2F20004237873B9FFF7CFFF40F20D
S2144001300003C0F200032BB140F6C400C0F24000FA
S214400140AFF300800123237010BD00BF08B540F216
S2144001500003C0F200034BB140F6C40040F2080171
S214400160C0F24000C2F20001AFF3008040F6C40087
S214400170C0F2400003682BB140F20003C0F2000317
S21440018003B19847BDE80840B2E700BF10B54FF44A
S2144001906060C0F2277040F20173C0F24003984797
S2144001A000203E2140F25533C0F24003984740F2CB
S2144001B0C134C0F24004A0470028FCD040F2D133FE
S2144001C0C0F2400398474FF48063C4F20E0343F6F0
S2144001D00172C2F213029A6240F2E134C0F2400465
S2144001E0A0470028FCD0102040F2DD23C0F2400398
S2144001F0984740F24D53C0F2400398474FF4606032
S214400200C0F2277040F20173C0F24003984710BD19
S214400210C06C7047806C70472DE9F84307460E4621
S21440022040F21123C0F2400398470546384640F254
S2144002301523C0F24003984705401BD040F22408DF
S214400240C2F2000808F10C0408F16C0854F80C3CA3
S214400250B3420AD154F8081C294206D023683046D7
S214400260984754F8083C25EA0305444502D0103424
S214400270002DEBD140F29403C2F200031B683BB161
S21440028040F22003C2F200031B680BB13846984781
S214400290BDE8F88308B54FF46060C4F20E000B2149
S2144002A040F21923C0F24003984708BD08B54FF402
S2144002B08050C4F20E000C2140F21923C0F24003D5
S2144002C0984708BD08B54FF49050C4F20E000D2173
S2144002D040F21923C0F24003984708BD4FF48063AC
S2144002E0C4F20E031A6B22F07002104318639B6E22
S2144002F013F0080F0CD14FF400634FF48061C4F242
S2144003000E0101E0013B1FD08A6E12F0080FF9D0B3
S2144003104FF48063C4F20E031A6B22F0030242F0DD
S21440032002021A63986E10F008000FD14FF4006373
S2144003304FF48061C4F20E0101E0013B08D08A6EA2
S21440034012F0080FF9D07047012070470020704720
S2144003500120704778B14FF48061C4F20E010B6AF9
S2144003604FF6FC72CFF6C8621A400223C0F237132B
S21440037013430B6270474FF48063C4F20E031A6A4D
S21440038022F45C1222F0030242F45C1242F00102B4
S214400390090289B2114319624FF48062C4F20E0218
S2144003A0936E13F0010FFBD04FF48063C4F20E033C
S2144003B01A6A42F09B7242F480321A62704700BF5B
S2144003C04FF48063C4F20E03986E00F4803070479A
S2144003D04FF48063C4F20E034FF000529A627047A7
S2144003E04FF48063C4F20E03986E00F0020070472C
S2144003F022282CD81F2813D84FF48063C4F20E034B
S2144004009A69012383401A40934222D0012303FA7B
S21440041000F04FF48063C4F20E031861002070476A
S2144004204FF48063C4F20E03D3F80821203801232A
S21440043083401A4093420ED0012303FA00F04FF453
S2144004408063C4F20E03C3F8000100207047012009
S2144004507047002070470020704700BFFEE700BF8F
S21440046010B540F6C402C0F2400240F20003C2F2A9
S21440047000039A4218D91A4640F20403C2F2000317
S2144004809A4233D2131F2F49C91A21F003011A1D6D
S214400490114440F6C402C0F2400252F8040B43F83E
S2144004A0040F8B42F9D121E040F6C402C0F240026C
S2144004B040F20003C2F200039A4217D240F2040010
S2144004C0C2F2000040F20003C2F20003C01A043A2F
S2144004D00244134650B140F20401C2F20001891AA8
S2144004E053F80449CC501C18A242F9D100BF40F240
S2144004F00402C2F2000240F29803C2F200039A429B
S2144005000BD2131D1049C91A21F003011944043BAC
S214400510002243F8042B8B42FBD140F20003C0F28A
S21440052040034FF46D42CEF20002936040F649031A
S214400530C0F24003984740F2E973C0F24003984740
S214400540FEE700BFFFFFFF1F9B0000204FF48063C5
S214400550C4F20E031B6B03F00303032B00F2A980C7
S214400560DFE803F002144F4F41F21043C4F20E038B
S2144005705B6913F0800F40F20003C2F2000314BF21
S2144005804FF400424FF4FA421A6092E04FF4806310
S214400590C4F20E031B6A13F0807F09D040F20003BA
S2144005A0C2F200034FF4D852C0F2B7021A6080E09D
S2144005B040F20003C2F200034FF41062C0F23D0264
S2144005C01A604FF48063C4F20E031B6A03F0700394
S2144005D0102B02D0202B0AD06BE040F20003C2F270
S2144005E000034FF49052C0F27A021A6061E040F283
S2144005F00003C2F200034FF4D852C0F2B7021A60AA
S21440060057E04FF48063C4F20E031B6A13F0807FFA
S21440061009D040F20003C2F200034FF4D852C0F2B1
S214400620B7021A6027E040F20003C2F200034FF41C
S2144006301062C0F23D021A604FF48063C4F20E03AB
S2144006401B6A03F07003102B02D0202B0AD012E056
S21440065040F20003C2F200034FF49052C0F27A0216
S2144006601A6008E040F20003C2F200034FF4D8528A
S214400670C0F2B7021A604FF48063C4F20E031B6BDD
S21440068003F00303022B4FF48063C4F20E0307BF4C
S214400690986A996AD86AD96A40F20003C2F200039F
S2144006A0C0F30A401A6800FB0222C9B2B2FBF1F25C
S2144006B01A604FF48063C4F20E031B6B03F07003A2
S2144006C0702B0DD140F20003C2F2000319684AF6BF
S2144006D0AB22CAF6AA22A2FB010252081A60704751
S2144006E04FF48063C4F20E03196B40F20003C2F26B
S2144006F00003C1F302111A68CA401A60704700BF6F
S21440070042F6FF43C0F2311398420CD84FF42063B0
S214400710C4F20E034FF080621A604FF44063C4F296
S2144007200E031A60704745F6FF13C0F262239842E4
S2144007300ED84FF42062C4F20E024FF48073C0F21B
S214400740004313604FF44062C4F20E0213607047D9
S21440075048F2FF63C0F2933398420ED84FF42062BB
S214400760C4F20E024FF40073C0F2004313604FF41D
S2144007704062C4F20E02136070474BF2FF33C0F281
S214400780C44398420ED84FF42062C4F20E024FF48F
S2144007904073C0F2004313604FF44062C4F20E024E
S2144007A0136070474EF2FF03C0F2F55398420CD8E0
S2144007B04FF42063C4F20E034FF004221A604FF445
S2144007C04063C4F20E031A6070474FF42062C4F2CE
S2144007D00E024FF4A063C0F2004313604FF4406231
S2144007E0C4F20E021360704708B540F28D13C0F293
S2144007F04003984741F25043C4F20E034FF4004280
S2144008005A600B2040F2F134C0F24004A0470C205E
S214400810A0470D20A0474FF46063C4F20E034FF488
S21440082080121A61C3F8A0204FF400201861C3F864
S214400830A0004FF49051C4F20E010A61C1F8A02006
S21440084058634A635A63FEE770B540F6B00640F612
S214400850B005C0F24005C0F24006761BB6101CBF7D
S214400860043D002405D0013455F8043F9847A6427D
S214400870F9D140F6B40640F6B005C0F24005C0F2E5
S2144008804006761B00F00EF8B6101CBF043D002450
S21440089006D0013455F8043F9847A642F9D170BDBA
S2144008A070BD00BFF8B500BFF8BC08BC9E46704798
S2144008B04D014000F8B500BFF8BC08BC9E467047E6
S2084008C01D01400091
S2084008C400093D00A5
S80440046156
